:100000000C9434000C943E000C943E000C943E0082
:100010000C943E000C943E000C943E000C943E0068
:100020000C943E000C943E000C943E000C943E0058
:100030000C943E000C943E000C943E000C943E0048
:100040000C943E000C943E000C943E000C943E0038
:100050000C943E000C9440000C943E000C943E0026
:100060000C943E000C943E0011241FBECFEFD8E04C
:10007000DEBFCDBF0E9453000C9463000C940000BF
:100080008F938FB78F93EF93FF93809179008BB904
:10009000EAE7F0E0808180648083FF91EF918F91A7
:1000A0008FBF8F9118958FEF8AB9399881E6809329
:1000B0007C008FE880937A00789480917A00806445
:0A00C00080937A00FFCFF894FFCF81
:00000001FF
