:100000000C9434000C943E000C943E000C943E0082
:100010000C943E000C943E000C943E000C943E0068
:100020000C943E000C943E000C943E000C943E0058
:100030000C943E000C943E000C943E000C943E0048
:100040000C943E000C943E000C943E000C943E0038
:100050000C943E000C9440000C943E000C943E0026
:100060000C943E000C943E0011241FBECFEFD8E04C
:10007000DEBFCDBF0E9457000C9466000C940000B8
:100080001F921FB61F9211248F93809179008A309E
:1000900058F41BB880917A00806480937A008F9125
:1000A0001F901FBE1F9018958FE08BB9F3CF8FEF75
:1000B0008AB981E280937C008FE880937A007894FB
:1000C00080917A00806480937A00FFCFF894FFCF0C
:00000001FF
