:100000000C9434000C943E000C943E000C943E0082
:100010000C943E000C943E000C943E000C943E0068
:100020000C943E000C943E000C943E000C943E0058
:100030000C943E000C943E000C943E000C943E0048
:100040000C943E000C943E000C943E000C943E0038
:100050000C943E000C9440000C943E000C943E0026
:100060000C943E000C943E0011241FBECFEFD8E04C
:10007000DEBFCDBF0E946A000C9482000C94000089
:100080001F921FB61F9211242F938F939F938091DD
:100090007A00806480937A0080917A0086FDFCCF9C
:1000A0008091780090917900893C910588F05D9A63
:1000B0002FEF89E698E1215080409040E1F700C0A1
:1000C00000009F918F912F911F901FBE1F90189538
:1000D0005D98EECF3998559A80917A008068809328
:1000E0007A0080917A00846080937A0080917A000F
:1000F000886080937A00789480917A0088608093F9
:080100007A00FFCFF894FFCF55
:00000001FF
