:100000000C9434000C9451000C9451000C94510049
:100010000C9451000C9451000C9451000C9451001C
:100020000C9451000C9451000C9451000C9451000C
:100030000C9451000C9451000C9451000C945100FC
:100040000C9451000C9451000C9451000C945100EC
:100050000C9451000C9451000C9451000C945100DC
:100060000C9451000C94510011241FBECFEFD8E026
:10007000DEBFCDBF11E0A0E0B1E0E0E1F2E002C000
:1000800005900D92A635B107D9F721E0A6E5B1E0BC
:1000900001C01D92AC35B207E1F70E9472000C94CA
:1000A00006010C9400001092C50087E68093C400FE
:1000B00086E08093C2001092C000089598E090936B
:1000C000C1009091C00095FFFCCF8093C6000895B9
:1000D00080E18093C1008091C00087FFFCCF8091B8
:1000E000C6000895CDB7DEB7C355D1090FB6F89451
:1000F000DEBF0FBECDBF0E9453008CE1E0E0F1E017
:10010000DE015F9601900D928A95E1F789E1EDE1BC
:10011000F1E0DE01DB9601900D928A95E1F72EE188
:10012000E7E3F1E0CE010196DC0101900D922A9502
:10013000E1F78E01015E1F4F7C01F80181918F0173
:10014000811124C08AE090E00E94CF008E01055CFE
:100150001F4FF80181918F0181111BC08AE090E04F
:100160000E94CF008701F80181918F01811114C095
:100170008AE090E00E94CF0080E090E0CD5ADF4F0F
:100180000FB6F894DEBF0FBECDBF08950E945E008B
:10019000D4CF0E945E00DDCF0E945E00E4CF60916C
:1001A0005801709159010E94D60008950F931F9332
:1001B000CF93DF93182F092FEB018B8181FD09C0AD
:1001C0001FEF0FEF812F902FDF91CF911F910F9194
:1001D000089582FF14C02E813F818C819D81281754
:1001E00039073CF4E881F981CF010196998388832E
:1001F00010838E819F8101969F838E83E3CFE88554
:10020000F985812F0995892BA1F3DACFF894FFCFD7
:1002100055445547414D41534F4F52495941204450
:100220002E502E20452F31392F3430390056494475
:100230005552414E474120472E472E4E2E20452FE6
:1002400031392F3431330057454552415348494ED7
:1002500047484120572E412E432E4A2E20452F310C
:06026000392F3432330097
:00000001FF
