:100000000C9434000C943E000C943E000C943E0082
:100010000C943E000C943E000C943E000C943E0068
:100020000C943E000C943E000C943E000C943E0058
:100030000C943E000C943E000C943E000C943E0048
:100040000C943E000C943E000C943E000C943E0038
:100050000C943E000C943E000C943E000C943E0028
:100060000C943E000C943E0011241FBECFEFD8E04C
:10007000DEBFCDBF0E9464000C9496000C9400007B
:100080009C01F999FECF32BD21BD60BDFA9AF99A63
:1000900008959C01F999FECF32BD21BDF89A80B533
:1000A00008951092C50087E68093C40088E180938C
:1000B000C10086E08093C20008958091C00087FF50
:1000C000FCCF8091C6000895CDB7DEB7D4500FB6EF
:1000D000F894DEBF0FBECDBF0E945100CE01019645
:1000E0006C015C01E12CF12C1D30B1F400E010E05A
:1000F000F60161916F01C8010E9440000F5F1F4F20
:10010000E016F106A8F780E090E0DC5F0FB6F89407
:10011000DEBF0FBECDBF08950E945D00182FF50110
:1001200081935F01FFEFEF1AFF0ADECFF894FFCF54
:00000001FF
