:100000000C9434000C943E000C943E000C943E0082
:100010000C943E000C943E000C943E000C943E0068
:100020000C943E000C943E000C943E000C943E0058
:100030000C943E000C943E000C943E000C943E0048
:100040000C943E000C943E000C943E000C943E0038
:100050000C943E000C943E000C943E000C943E0028
:100060000C943E000C943E0011241FBECFEFD8E04C
:10007000DEBFCDBF0E946B000C947F000C9400008B
:100080009C01F999FECF32BD21BD60BDFA9AF99A63
:1000900008959C01F999FECF32BD21BDF89A80B533
:1000A00008951092C50087E68093C40088E180938C
:1000B000C10086E08093C20008959091C00095FF32
:1000C000FCCF8093C60008958091C00087FFFCCFCD
:1000D0008091C60008950E945100C0E0D0E0CE019A
:1000E0000E944900182F0E945D0021961D3021F0CA
:1000F000C11584E0D80799F780E090E00895F8945E
:02010000FFCF2F
:00000001FF
