:100000000C9434000C943E000C943E000C943E0082
:100010000C943E000C943E000C943E000C943E0068
:100020000C943E000C943E000C943E000C943E0058
:100030000C943E000C943E000C943E000C943E0048
:100040000C943E000C943E000C943E000C943E0038
:100050000C943E000C943E000C943E000C943E0028
:100060000C943E000C943E0011241FBECFEFD8E04C
:10007000DEBFCDBF0E946B000C948A000C94000080
:100080009C01F999FECF32BD21BD60BDFA9AF99A63
:1000900008959C01F999FECF32BD21BDF89A80B533
:1000A00008951092C50087E68093C40088E180938C
:1000B000C10086E08093C20008959091C00095FF32
:1000C000FCCF8093C60008958091C00087FFFCCFCD
:1000D0008091C60008950E94510000E010E0CD30EC
:1000E00079F4C0E0D0E0CE010E9449000E945D009A
:1000F0002196C11584E0D807B1F780E090E008951B
:100100000E946400C82F682FC8010E9440000F5F42
:080110001F4FE5CFF894FFCF6B
:00000001FF
